:100000000C9470030C9498030C9498030C9498032C
:100010000C9498030C9498030C9498030C949803F4
:100020000C9498030C9498030C9452070C94C107F9
:100030000C9498030C9498030C9498030C949803D4
:100040000C9498030C9498030C9498030C949803C4
:100050000C9498030C9498030C9498030C94F30953
:100060000C9498030C9498030C9498030C949803A4
:100070000C9498030C9498030C9498030C94980394
:100080000C9498030C9498030C9498030C94980384
:100090000C9498030C9498030C9498030C94980374
:1000A0000C9498030C9498030C949803000000009F
:1000B000003E5B4F5B3E3E6B4F6B3E1C3E7C3E1CEE
:1000C000183C7E3C181C577D571C1C5E7F5E1C0034
:1000D000183C1800FFE7C3E7FF0018241800FFE7EB
:1000E000DBE7FF30483A060E2629792926407F05AE
:1000F0000507407F05253F5A3CE73C5A7F3E1C1CC4
:1001000008081C1C3E7F14227F22145F5F005F5F83
:1001100006097F017F006689956A6060606060946F
:10012000A2FFA29408047E040810207E2010080874
:100130002A1C08081C2A08081E101010100C1E0C7F
:100140001E0C30383E3830060E3E0E060000000011
:100150000000005F00000007000700147F147F14F8
:10016000242A7F2A1223130864623649562050003D
:1001700008070300001C2241000041221C002A1C29
:100180007F1C2A08083E0808008070300008080814
:100190000808000060600020100804023E51494534
:1001A0003E00427F400072494949462141494D3352
:1001B0001814127F1027454545393C4A49493141B9
:1001C000211109073649494936464949291E000087
:1001D00014000000403400000008142241141414DC
:1001E0001414004122140802015909063E415D59C8
:1001F0004E7C1211127C7F494949363E41414122D1
:100200007F4141413E7F494949417F090909013EFA
:10021000414151737F0808087F00417F4100204021
:10022000413F017F081422417F404040407F021C33
:10023000027F7F0408107F3E4141413E7F0909094A
:10024000063E4151215E7F09192946264949493216
:1002500003017F01033F4040403F1F2040201F3FDC
:100260004038403F63140814630304780403615961
:10027000494D43007F4141410204081020004141A3
:10028000417F04020102044040404040000307084F
:100290000020545478407F2844443838444444284B
:1002A000384444287F385454541800087E090218F2
:1002B000A4A49C787F0804047800447D400020407A
:1002C000403D007F1028440000417F40007C0478BE
:1002D00004787C080404783844444438FC18242406
:1002E0001818242418FC7C08040408485454542486
:1002F00004043F44243C4040207C1C2040201C3C03
:100300004030403C44281028444C9090907C4464F9
:10031000544C44000836410000007700000041368C
:10032000080002010204023C2623263C1EA1A16112
:10033000123A4040207A3854545559215555794144
:100340002154547841215554784020545579400C1B
:100350001E527212395555555939545454593955FC
:100360005454580000457C410002457D420001453F
:100370007C40F0292429F0F0282528F07C545545AC
:10038000002054547C547C0A097F4932494949323F
:100390003248484832324A4848303A4141217A3A54
:1003A00042402078009DA0A07D39444444393D401E
:1003B00040403D3C24FF2424487E4943662B2FFCCB
:1003C0002F2BFF0929F620C0887E09032054547979
:1003D000410000447D413048484A32384040227A4A
:1003E000007A0A0A727D0D19317D2629292F2826C7
:1003F0002929292630484D402038080808080808CF
:100400000808382F10C8ACBA2F102834FA00007B27
:10041000000008142A142222142A1408950022002D
:1004200095AA005500AAAA55AA55AA000000FF00E7
:10043000101010FF00141414FF001010FF00FF1024
:1004400010F010F0141414FC001414F700FF000056
:10045000FF00FF1414F404FC141417101F10101FD5
:10046000101F1414141F00101010F0000000001FC3
:10047000101010101F10101010F010000000FF10CE
:100480001010101010101010FF10000000FF1400CA
:1004900000FF00FF00001F10170000FC04F41414FC
:1004A0001710171414F404F40000FF00F7141414C8
:1004B00014141414F700F7141414171410101F1048
:1004C0001F141414F4141010F010F000001F101F6B
:1004D0000000001F14000000FC140000F010F010D9
:1004E00010FF10FF141414FF141010101F00000050
:1004F00000F010FFFFFFFFFFF0F0F0F0F0FFFFFF54
:100500000000000000FFFF0F0F0F0F0F38444438AA
:10051000447C2A2A3E147E02020606027E027E02E5
:1005200063554941633844443C04407E201E200604
:10053000027E020299A5E7A5991C2A492A1C4C7241
:1005400001724C304A4D4D303048784830BC625AC8
:10055000463D3E494949007E0101017E2A2A2A2A58
:100560002A44445F444440514A444040444A514034
:100570000000FF0103E080FF000008086B6B0836F5
:1005800012362436060F090F060000181800000066
:100590001010003040FF0101001F01011E00191D55
:1005A0001712003C3C3C3C0000000000F0F89C8E20
:1005B0008783878E9CF8F00000FEFF03030303038C
:1005C000070EFCF80000FEFF0303030303070EFC05
:1005D000F80000FFFF00000000000000FFFF000027
:1005E000FEFF8383838383C7EE7C380000F8FC0E14
:1005F00007030303070EFCF800003F7FE0C0808084
:10060000C0E07F3FFFFF01010101010101FFFF0089
:1006100000FFFF0C0C0C0C1C3E77E3C100007FFFB9
:10062000C0C0C0C0C0E0703F1F00001F3F70E0C0EE
:10063000C0C0E0703F1F00007FFFC1C1C1C1C1E366
:10064000773E1C00001F3F70E0C0C0C0E0703F1F3D
:10065000000000000001FFFF01000000D5F08D1434
:10066000A1C881CFD9F1AF2000080B00020202001F
:100670000009040000010202000005240010010529
:100680002401010104240206052406000107058156
:100690000310004009040100020A000000070502DF
:1006A0000240000007058302400000040309041211
:1006B000010002EF020140412336800001010203E4
:1006C0000141726475696E6F204C4C430041726445
:1006D00075696E6F204C656F6E6172646F00B50A4C
:1006E00011241FBECFEFDAE0DEBFCDBF11E0A0E0E6
:1006F000B1E0E6E7FAE102C005900D92A238B10739
:10070000D9F726E0A2E8B1E001C01D92A830B207F7
:10071000E1F713E0C0E7D3E004C02197FE010E9497
:100720002E0DCF36D107C9F70E94E60A0C94390D79
:100730000C940000E1EAF1E0A0E0B8E000800EBC1B
:100740008111012C1197A0FDFDCF0192B9F70DB4D5
:100750000895FC018091A001882311F13FB7F8941E
:1007600082E08093E9002091F200822F90E0181639
:10077000190614F481E090E0882339F0289844E6C3
:1007800040939F014091F1004083222339F0209152
:10079000F200211103C02BE62093E8003FBF08952B
:1007A0008FEF9FEF08952FB7F89483E08093E900CF
:1007B0009091E800892F807295FF04C09091F2001B
:1007C00080E4891B2FBF08958091970181110DC08E
:1007D00082E08093930184E08093940110929601CB
:1007E0001092950181E08093970183E991E008954B
:1007F000CF93DF931F92CDB7DEB76983DC01ED9114
:10080000FC910280F381E02D41E050E0BE016F5F7A
:100810007F4F09950F90DF91CF91089583E08093EA
:10082000E9008091F200882319F08AE38093E800C0
:1008300008950E94D30390E00895CF93DF931F9211
:10084000CDB7DEB7FC018485958597FD08C02FEFF5
:100850003FEF358724870F90DF91CF910895CE0128
:1008600001960E94A903019719F4898190E0F3CFC2
:100870008FEF9FEFF0CF0F931F93CF93DF931F92D4
:10088000CDB7DEB78C01FC018485958597FF0BC041
:10089000CE0101960E94A903019771F4898190E02D
:1008A000F80195878487F801848595850F90DF91FD
:1008B000CF911F910F9108958FEF9FEFF1CFFC0122
:1008C0008485958597FD0BC09FB7F89482E080934F
:1008D000E9008091F2009FBF90E0019608959FB7D4
:1008E000F89482E08093E9008091F2009FBF90E04D
:1008F000089540918D0150918E0120918B0130918E
:100900008C0142175307B4F49091E8009570E1F31D
:100910009091E80092FD19C08093F10080918D01C3
:1009200090918E0101968F739927892B19F48EEF80
:100930008093E80080918D0190918E0101969093B3
:100940008E0180938D0181E0089580E00895DF920B
:10095000EF92FF920F931F93CF93DF93D82E8A01CC
:10096000EB017B01E40EF51ECE15DF0559F0D7FE35
:1009700012C0FE0184910E94790421968111F4CF66
:100980000FEF1FEFC801DF91CF911F910F91FF90E3
:10099000EF90DF9008958881EECF0F931F93CF9350
:1009A000DF931F92CDB7DEB782E0898342E450E047
:1009B00069E676E080E80E94A7040E94E403DC0177
:1009C00012960D911C910115110589F0D801ED9138
:1009D000FC910280F381E02DBE016F5F7F4FC80163
:1009E000099597FD04C0F80100851185ECCF898138
:1009F0000F90DF91CF911F910F910895615030F0CA
:100A00002091F100FC0120830196F8CF289884E61C
:100A100080939F010895AF92BF92CF92DF92EF92A1
:100A2000FF920F931F93CF93DF936C017B018B0198
:100A3000040F151FEB015E01AE18BF08C017D107E8
:100A400059F06991D601ED91FC910190F081E02D72
:100A5000C6010995892B79F7C501DF91CF911F91C7
:100A60000F91FF90EF90DF90CF90BF90AF900895DF
:100A70003FB7F8948091870190918801A0918901F6
:100A8000B0918A0126B5A89B05C02F3F19F00196A9
:100A9000A11DB11D3FBFBA2FA92F982F8827BC01D8
:100AA000CD01620F711D811D911D42E0660F771F00
:100AB000881F991F4A95D1F708958F929F92AF9200
:100AC000BF92CF92DF92EF92FF926B017C010E9466
:100AD00038054B015C01C114D104E104F104B9F003
:100AE0000E943805681979098A099B09683E734094
:100AF0008105910580F321E0C21AD108E108F108CF
:100B000088EE880E83E0981EA11CB11CE4CFFF90F4
:100B1000EF90DF90CF90BF90AF909F908F9008950F
:100B20008F929F92AF92BF92CF92DF92EF92FF92FD
:100B30000F931F93CF93DF936C017B018A01809108
:100B40000B01882309F45CC08091A001882309F47B
:100B500057C08091920180FF05C08091E0008260C3
:100B60008093E000E801B12C8AEFA82E93E0892E53
:100B70002AE3922E209711F4BB20D9F10E94D303CF
:100B800081110AC0AA94AA20D9F161E070E080E046
:100B900090E00E945D05EECF8C171D0611F00CF061
:100BA0008C2F9FB7F8948092E9002091E80025FDF2
:100BB00002C09FBFDFCF282F30E0C21BD30BF7014D
:100BC000815020F041914093F100FACFE20EF31EE4
:100BD000BB2021F09092E800B12CEBCF8091E8008F
:100BE00085FDE7CF9092E800BB24B394209709F3EA
:100BF000F3CF5D9884E680939101101611063CF0C6
:100C000081E090E0F6019383828310E000E0C80168
:100C1000DF91CF911F910F91FF90EF90DF90CF90D8
:100C2000BF90AF909F908F9008952D9A0895BC012A
:100C300090E080E00C945D058FB18095807F669B8D
:100C400088601C9B846008952F923F924F925F9220
:100C50006F927F928F929F92AF92BF92CF92DF92CC
:100C6000EF92FF920F931F93CF93DF9300D000D0AA
:100C70001F92CDB7DEB79C838B836A3059F5DC01B8
:100C800055968C91B8E08B9F90011124EB81FC81EB
:100C900081899289820F931F928B818B108A17868C
:100CA00081E090E00F900F900F900F900F90DF91E8
:100CB000CF911F910F91FF90EF90DF90CF90BF9059
:100CC000AF909F908F907F906F905F904F903F90EC
:100CD0002F9008956D3021F3AB81BC811F968D91CB
:100CE0009C915097803891050CF087C05196CD901B
:100CF000DC90B0E4CB16D1040CF07FC0EB81FC811A
:100D00009588E5E09C019E9E200D311D1124121650
:100D100013060CF072C0E92CF12C9701B3E0220FFE
:100D2000331FBA95E1F72C0D3D1D121613060CF07A
:100D300064C0AB81BC8154965C90549753964C90A0
:100D40006E9FF0011124E455FF4F70E0249175303F
:100D500009F420E05601A8E06A2E222E312C642DE1
:100D600020FF652D611103C0541409F437C0AC0194
:100D700061706A834983242F281B291578F510E0B8
:100D800000E0091540F54038510510F598012A0D8D
:100D90003B1D20343105E0F460E1762E898061E06E
:100DA00021FD64E020FD660F22FD6295287F729E82
:100DB000D0011124A80D6D83AF55BE4F2C913A81FF
:100DC000862E822A311103C08D80809482228C92DB
:100DD0000F5F1F4FD6CF4F5F5F4FCCCF910135953F
:100DE00027956A94AE0CBF1C6110B7CF7F5F319618
:100DF0008E0D9F1D763009F0A9CFAB81BC81559631
:100E00002C915597422F50E01F968D919C91B6E002
:100E10002B9F800D911D1124EB81FC81908B878786
:100E20002689222309F43CCF6AEF64039001659F71
:100E3000300D112420583F4F281739070CF030CFC0
:100E4000CF010190F081E02D0190F081E02D6AE06A
:100E5000099526CF0895089590E080E0089542E036
:100E600050E069E371E081EF95E00C940B05CF93BE
:100E7000DF93FC0101900020E9F73197AF01481B97
:100E8000590BBC0181EF95E00E940B05EC010E941B
:100E90002F078C0F9D1FDF91CF9108950C94180D93
:100EA0000E94340D1F920F920FB60F9211248F9350
:100EB0009F938091E1009091E100937F9093E100F6
:100EC00083FF0FC01092E90091E09093EB00109225
:100ED000EC0092E39093ED001092A00198E09093C3
:100EE000F00082FF22C093E09093E9009091F2001D
:100EF000992319F09AE39093E80090919101992336
:100F000041F090919101915090939101911101C004
:100F10005D9A90919F01992341F090919F0191508A
:100F200090939F01911101C0289A84FF18C080916D
:100F3000E2008E7E81608093E2008091E1008F7EEE
:100F40008093E100809192018E7E80618093920176
:100F50009F918F910F900FBE0F901F90189580FF5B
:100F6000F7CF8091E2008E7E80618093E2008091D5
:100F7000E1008E7E8093E100809192018E7E8160FF
:100F8000E5CF1F920F920FB60F921124CF92DF92EE
:100F9000EF92FF920F931F932F933F934F935F9383
:100FA0006F937F938F939F93AF93BF93EF93FF9331
:100FB000CF93DF93CDB7DEB76C97DEBFCDBF109276
:100FC000E9008091E80083FF25C068E0CE014596E6
:100FD0000E94FE0482EF8093E8008D8987FF39C06C
:100FE0009091E80090FFFCCF982F907609F034C1E3
:100FF0009E894F89588D2F89F88C911131C0803886
:1010000061F5809190018093F1001092F1008EEFD4
:101010008093E8006C960FB6F894DEBF0FBECDBF8C
:10102000DF91CF91FF91EF91BF91AF919F918F9100
:101030007F916F915F914F913F912F911F910F91F0
:10104000FF90EF90DF90CF900F900FBE0F901F900A
:1010500018959EEF9093E800C7CF1092F100D5CF7E
:10106000913059F48111D3CF4130510581F68091EF
:1010700090018D7F80939001CACF933049F4811104
:10108000C6CF4130510519F6809190018260F2CFB0
:10109000953041F48091E80080FFFCCF20682093D8
:1010A000E300B5CF963009F0A9C00B8D1C8D22E06E
:1010B0001092E90010928E0110928D01F2122EC052
:1010C00010928C0110928B010E94CD041F8299E036
:1010D0009983FA8291E09E8390EA98879AEF9987A4
:1010E00020918D0130918E01275F3F4F3C832B83F0
:1010F0008D831092E90010928E0110928D01109351
:101100008C0100938B0149E050E0BE016F5F7F4F7F
:1011100080E00E94A7040E94CD0479CF10938C0137
:1011200000938B010E94E403DC0112960D911C9147
:101130000115110509F451C1D801ED91FC9104800C
:10114000F581E02DBE016B5E7F4FC80109950097C8
:1011500009F03EC1F80100851185EACFF3E0FF12E6
:101160000EC08F89882309F440C0823061F440E8C2
:1011700060E18DEC96E00E943D0A811148CF81E24A
:101180008093EB0047CF813029F440E86BE081EC9D
:1011900096E0F1CF833099F70E94E403DC011296C8
:1011A000ED90FC908E010F5F1F4F6801E114F10478
:1011B00079F0D701ED91FC910680F781E02DB8011F
:1011C000C7010995080F111DF701E084F184EECFE6
:1011D000D8011C92F60101900020E9F73197BF0178
:1011E0006C197D0940E0C601C6CF6BEA76E0FB01D1
:1011F000449150E080E80E94A70409CF973009F499
:10120000BECF983021F481E08093F10000CF993077
:1012100009F0FDCE837009F0B2CFEDE0F1E081E09E
:1012200031E096E32191222371F08093E90030931D
:10123000EB00DF0111972C912093EC009093ED00CF
:101240008F5F873079F78EE78093EA001092EA008B
:101250008F898093A001DBCE8B8D9C8D1092E9004D
:1012600010928E0110928D0190938C0180938B01CE
:10127000898D811192C08E899D89913A49F481327C
:1012800009F07DCF47E050E064E071E080E0B3CF4B
:10129000913209F074CF833269F48F89988DB0E070
:1012A000A0E08093000190930101A0930201B0930C
:1012B0000301ADCE803269F48091E80082FFFCCF5B
:1012C00067E084E091E00E94FE048BEF8093E800E9
:1012D0009ECE823209F09BCE8F8980930B01EEEF78
:1012E000FFE7859194918B3F9C4D51F1E0E0F8E050
:1012F0008091040190910501A0910601B091070130
:10130000803B9440A105B105F1F480910B0180FD73
:101310001AC0EE3F8AE0F80789F587E797E79183DF
:1013200080838091600080938F0188E19BE00FB6FD
:10133000F894A895809360000FBE9093600067CEEC
:10134000EEEFFAE0D5CF808191818737974709F09A
:101350005ECEA89580916000886180936000809146
:101360008F0180936000EE3F2AE0F20789F08091C0
:10137000FE0A9091FF0A9183808349CE80819181FA
:101380008737980751F29093FF0A8093FE0AC5CFE2
:101390001092FF0A1092FE0A3ACE0E94E403DC018A
:1013A00012960D911C910115110509F4E8CED80192
:1013B000ED91FC910190F081E02DBE016B5E7F4FBD
:1013C000C8010995811123CEF80100851185EBCF65
:1013D000181619060CF41BCED2CEF1E0FF12BECEC9
:1013E0006FEA76E004CF1F920F920FB60F9211248E
:1013F0002F933F938F939F93AF93BF9380918301DC
:1014000090918401A0918501B09186013091820173
:1014100023E0230F2D3758F50196A11DB11D209310
:1014200082018093830190938401A0938501B093FE
:1014300086018091870190918801A0918901B091E6
:101440008A010196A11DB11D8093870190938801A7
:10145000A0938901B0938A01BF91AF919F918F9121
:101460003F912F910F900FBE0F901F90189526E877
:10147000230F0296A11DB11DD2CFEF92FF920F93C1
:101480001F93CF93DF93F82E192FE62E042F81E0C0
:10149000860F880F0E94790483E00E947904CF2D83
:1014A000D12FEC0EFD2EF11CCE15DF05B9F007FF94
:1014B00013C0FE0184910E947904182F80E00E94DD
:1014C0007904812321968111EFCFDF91CF911F9174
:1014D0000F91FF90EF9008958881EDCF81E0F5CFD7
:1014E0000F931F93CF93DF938C0181E090E00E94D4
:1014F0004E0780FF32C08AE090E00E944E079FEFC7
:10150000980F9E3F50F522E330E0D80150963C936F
:101510002E931F9728E330E052963C932E935197D9
:10152000CBE0D0E0D801ED91FC910190F081E02D6D
:10153000682FC8010995CE010E944E072196C1313E
:10154000D10581F780E00E949A0388EE93E0DF9155
:10155000CF911F910F910C941706DF91CF911F919E
:101560000F91089504970C94700AE1EAF5E0138254
:10157000128288EE93E0A0E0B0E084839583A68396
:10158000B78387E191E0918380838FEF9FEF958709
:101590008487E1EFF5E0138212821186128680E1E2
:1015A000838710861782158689E291E09183808374
:1015B00087E391E095838483108A1786128A118AC3
:1015C00081E0838B148A858B168A0895789484B57C
:1015D000826084BD84B5816084BD85B5826085BD2F
:1015E00085B5816085BD80916E00816080936E00BD
:1015F00010928100809181008260809381008091AF
:10160000810081608093810080918000816080935F
:101610008000809191008260809391008091910080
:101620008160809391008091900081608093900010
:101630008091C10084608093C1008091C10082606C
:101640008093C1008091C10081608093C10080912E
:10165000C30081608093C3008091C000826080934A
:10166000C0008091C20081608093C20080917A00A6
:10167000846080937A0080917A00826080937A00FF
:1016800080917A00816080937A0080917A008068EE
:1016900080937A001092A001109290011092920112
:1016A0008091D70081608093D70080EA8093D80032
:1016B00089B5806189BD89B5826089BD09B400FEA4
:1016C000FDCF61E070E080E090E00E945D058091D8
:1016D000D8008F7C80618093D8008091E000807F6B
:1016E0008093E0008091E1008E7E8093E1008DE0A8
:1016F0008093E200559A209A81EC80937C0085B11A
:10170000806F85B984B1877E84B984B1876E84B9CE
:101710005E9A5F988AB1806D8AB9769A6E9881B325
:10172000806F81BB899880B38D7080BB80E58CBD54
:1017300081E08DBD85E090E00E9417065F9A85E00C
:1017400090E00E9417065E985C98ECE5F6E089E66A
:1017500096E024912EBD00000DB407FEFDCF31961A
:101760008E179F07B1F75C9A81E88093640080919F
:10177000650081608093650080E00E949A030E946A
:101780001C0687FF15C05C9885EA8EBD00000DB46D
:1017900007FEFDCF5C9A2E982F982D9880916400BB
:1017A00080628093640081E083BF889513BEFCCF84
:1017B0000E941C0682FF48C02D980E941C06847857
:1017C0008438E1F40E94150688EC90E00E94170628
:1017D0002F9882E090E00E94180D8F3F29F06FEF64
:1017E00082E090E00E94200D84EF91E00E941706B5
:1017F0002F9A0E941C0684788438D9F30E941C0614
:1018000084718431E1F40E94150688EC90E00E9416
:1018100017062E9882E090E00E94180D882329F088
:1018200060E082E090E00E94200D84EF91E00E9451
:1018300017062E9A0E941C0684718431D9F388EC15
:1018400090E00E941706B4CF0E94150682E090E057
:101850000E944E07882309F452C03E9A3F9A81E0C5
:1018600090E00E944E07482F4470942E81FF10C0D4
:1018700041112E98C0EFDFEF08E010E078E5872EE9
:101880000E941C0686FF3EC02E9A2F9A0E941506C3
:1018900082E390E00E9417060E941C068111F8CF97
:1018A000E1EAF1E081118FEF00248193819381932C
:1018B00081930394D1F710920306109202061092BE
:1018C0000106109200068CE391E00E9437070E9407
:1018D0002F0785E491E00E94370788E591E00E9498
:1018E00037078CE691E00E94370780E00E949A0358
:1018F000C0E0D0E02097F1F30E940000FBCF3E98BB
:101900003F98ADCF992029F0C430D10511F42E9A1B
:101910002F9881E00E949A039E01D7FF04C02227DE
:1019200033272C1B3D0B27703327CE01D7FD07969D
:1019300063E0959587956A95E1F7D7FF05C0019714
:10194000F801E21BF30B9F01BC017695762F662709
:10195000779567956F557E4FF12CE12C3801621A0F
:10196000730A8F3FFFEF9F070CF43DC08E9CD001A0
:101970008F9CB00D112450E040E0A455BA4F5B019C
:10198000E0E8AE0EB11C8F3F980791F0FD01E40F27
:10199000F51FE4916B01C40ED51EF0E02F01022E5D
:1019A00001C0440C0A94EAF7F60154884528448A99
:1019B0002115310599F0FD01E40FF51FE491650152
:1019C000C40ED51EF0E02F01062C02C0559447949A
:1019D0000A94E2F7F60154884528448A4F5F5F4F26
:1019E0004835510581F6019660587F4FEA94EF28FB
:1019F000D9F480E00E949A038FE090E00E941706DD
:101A00002196C931D10509F03BCF992011F02F9AC9
:101A10002D9880E991E00E9417060E94150681EF3B
:101A200095E00E94700A34CFEE24E394F12C99CF14
:101A3000F999FECF92BD81BDF89A992780B5089596
:101A4000262FF999FECF1FBA92BD81BD20BD0FB6DA
:101A5000F894FA9AF99A0FBE01960895EE0FFF1FB7
:101A60000590F491E02D099481E090E0F8940C94B5
:061A7000390DF894FFCFD0
:101A7600FFFFFFFF00E100000000000000C18081C1
:101A860000000000000000F803900519040E045F32
:101A9600041D043B040000000024060B052C072B44
:101AA60007700AFCFF0000B20A0D0A0057656C6356
:101AB6006F6D652100506C656173652064726167A6
:101AC60020262064726F70006865782066696C65F0
:101AD6007320696E746F20746869730077696E6429
:101AE6006F7720746F206C6F6164207468656D2E4B
:021AF6000000EE
:00000001FF
